{
  "_format": "hh-sol-artifact-1",
  "contractName": "Transaction",
  "sourceName": "contracts/Transaction.sol",
  "abi": [
    {
      "inputs": [],
      "stateMutability": "nonpayable",
      "type": "constructor"
    },
    {
      "inputs": [
        {
          "internalType": "uint256",
          "name": "requested",
          "type": "uint256"
        },
        {
          "internalType": "uint256",
          "name": "required",
          "type": "uint256"
        }
      ],
      "name": "InsufficientDeposit",
      "type": "error"
    },
    {
      "inputs": [],
      "name": "NotOwner",
      "type": "error"
    },
    {
      "anonymous": false,
      "inputs": [
        {
          "indexed": true,
          "internalType": "address",
          "name": "sender",
          "type": "address"
        },
        {
          "indexed": false,
          "internalType": "uint256",
          "name": "amount",
          "type": "uint256"
        },
        {
          "indexed": false,
          "internalType": "uint256",
          "name": "when",
          "type": "uint256"
        }
      ],
      "name": "Deposit",
      "type": "event"
    },
    {
      "anonymous": false,
      "inputs": [
        {
          "indexed": true,
          "internalType": "address",
          "name": "sender",
          "type": "address"
        },
        {
          "indexed": false,
          "internalType": "uint256",
          "name": "amount",
          "type": "uint256"
        },
        {
          "indexed": false,
          "internalType": "uint256",
          "name": "when",
          "type": "uint256"
        }
      ],
      "name": "Withdraw",
      "type": "event"
    },
    {
      "stateMutability": "nonpayable",
      "type": "fallback"
    },
    {
      "inputs": [],
      "name": "MINIMUM_DEPOSIT",
      "outputs": [
        {
          "internalType": "uint256",
          "name": "",
          "type": "uint256"
        }
      ],
      "stateMutability": "view",
      "type": "function"
    },
    {
      "inputs": [],
      "name": "deposit",
      "outputs": [],
      "stateMutability": "payable",
      "type": "function"
    },
    {
      "inputs": [],
      "name": "i_owner",
      "outputs": [
        {
          "internalType": "address payable",
          "name": "",
          "type": "address"
        }
      ],
      "stateMutability": "view",
      "type": "function"
    },
    {
      "inputs": [],
      "name": "withdraw",
      "outputs": [],
      "stateMutability": "nonpayable",
      "type": "function"
    },
    {
      "stateMutability": "payable",
      "type": "receive"
    }
  ],
  "bytecode": "0x60a0604052348015600f57600080fd5b503373ffffffffffffffffffffffffffffffffffffffff1660808173ffffffffffffffffffffffffffffffffffffffff168152505060805161062c610066600039600081816101b001526103e1015261062c6000f3fe6080604052600436106100435760003560e01c80633ccfd60b14610137578063d0e30db01461014e578063dba6335f14610158578063f19451d814610183576100ef565b366100ef5766023cfb4e35600034101561009d573466023cfb4e3560006040517f25c3f46e000000000000000000000000000000000000000000000000000000008152600401610094929190610427565b60405180910390fd5b3373ffffffffffffffffffffffffffffffffffffffff167f90890809c654f11d6e72a28fa60149770a0d11ec6c92319d6ceb2bb0a4ea1a1534426040516100e5929190610427565b60405180910390a2005b3480156100fb57600080fd5b506040517f08c379a000000000000000000000000000000000000000000000000000000000815260040161012e906104ad565b60405180910390fd5b34801561014357600080fd5b5061014c6101ae565b005b610156610338565b005b34801561016457600080fd5b5061016d6103df565b60405161017a919061050e565b60405180910390f35b34801561018f57600080fd5b50610198610403565b6040516101a59190610529565b60405180910390f35b7f000000000000000000000000000000000000000000000000000000000000000073ffffffffffffffffffffffffffffffffffffffff163373ffffffffffffffffffffffffffffffffffffffff1614610233576040517f30cd747100000000000000000000000000000000000000000000000000000000815260040160405180910390fd5b60003373ffffffffffffffffffffffffffffffffffffffff164760405161025990610575565b60006040518083038185875af1925050503d8060008114610296576040519150601f19603f3d011682016040523d82523d6000602084013e61029b565b606091505b5050905080156102fa573373ffffffffffffffffffffffffffffffffffffffff167ff279e6a1f5e320cca91135676d9cb6e44ca8a08c0b88342bcdb1144f6511b56847426040516102ed929190610427565b60405180910390a2610335565b6040517f08c379a000000000000000000000000000000000000000000000000000000000815260040161032c906105d6565b60405180910390fd5b50565b66023cfb4e35600034101561038d573466023cfb4e3560006040517f25c3f46e000000000000000000000000000000000000000000000000000000008152600401610384929190610427565b60405180910390fd5b3373ffffffffffffffffffffffffffffffffffffffff167f90890809c654f11d6e72a28fa60149770a0d11ec6c92319d6ceb2bb0a4ea1a1534426040516103d5929190610427565b60405180910390a2565b7f000000000000000000000000000000000000000000000000000000000000000081565b66023cfb4e35600081565b6000819050919050565b6104218161040e565b82525050565b600060408201905061043c6000830185610418565b6104496020830184610418565b9392505050565b600082825260208201905092915050565b7f556e61626c6520746f2070726f63657373207472616e73616374696f6e000000600082015250565b6000610497601d83610450565b91506104a282610461565b602082019050919050565b600060208201905081810360008301526104c68161048a565b9050919050565b600073ffffffffffffffffffffffffffffffffffffffff82169050919050565b60006104f8826104cd565b9050919050565b610508816104ed565b82525050565b600060208201905061052360008301846104ff565b92915050565b600060208201905061053e6000830184610418565b92915050565b600081905092915050565b50565b600061055f600083610544565b915061056a8261054f565b600082019050919050565b600061058082610552565b9150819050919050565b7f556e61626c6520746f2077697468647261770000000000000000000000000000600082015250565b60006105c0601283610450565b91506105cb8261058a565b602082019050919050565b600060208201905081810360008301526105ef816105b3565b905091905056fea264697066735822122069c6b727f331bc906ce9fec67e58c9389a993f82b7f122f3f6b7fba597a2ca9464736f6c634300081d0033",
  "linkReferences": {},
  "deployedLinkReferences": {}
}